:100000001FC037C036C035C043C033C032C031C056
:1000100030C02FC02EC02DC02CC02BC02AC029C07C
:1000200028C027C026C02800003C243F00003D0017
:1000300000BCA4FC0000BCA4FC0000000000000008
:1000400011241FBECFEDCDBF10E0A0E6B0E0E0E090
:10005000F1E002C005900D92A236B107D9F720E079
:10006000A2E6B0E001C01D92A336B207E1F739D095
:1000700045C0C6CF9C012115310509F408958FECC8
:1000800097E00197F1F700C0000021503109F3CF4C
:100090001F921FB61F9211242F938F939F93EF935C
:1000A000FF93209162008091600090916100281779
:1000B000190614F010926200E0916200F0E0E85D31
:1000C000FF4FE491E8BB809162008F5F80936200F4
:1000D000FF91EF919F918F912F911F901FBE1F90C5
:1000E00018958FEF87BB89E08EBD80E197E29BBDBD
:1000F0008ABD89B7806489BF7894FFCFF894FFCF19
:020100001800E5
:00000001FF
