:100000002AC042C041C040C04EC03EC03DC03CC0FE
:100010003BC03AC039C038C037C036C035C034C024
:1000200033C032C031C02800000000CEDFFB7300B7
:100030000000E7E73C183CE7E7000000CEDFFB33B9
:10004000000000071FFCE07878E0FC1F07000000BC
:1000500000000000000011241FBECFEDCDBF10E056
:10006000A0E6B0E0E6E1F1E002C005900D92A23614
:10007000B107D9F720E0A2E6B0E001C01D92A33697
:10008000B207E1F739D045C0BBCF9C01211531053E
:1000900009F408958FEC97E00197F1F700C0000094
:1000A00021503109F3CF1F921FB61F9211242F93B5
:1000B0008F939F93EF93FF93209162008091600054
:1000C000909161002817190614F010926200E091D7
:1000D0006200F0E0E85DFF4FE491E8BB80916200D0
:1000E0008F5F80936200FF91EF919F918F912F918D
:1000F0001F901FBE1F9018958FEF87BB89E08EBDA4
:1001000080E197E29BBD8ABD89B7806489BF7894FE
:06011000FFCFF894FFCFC1
:020116002E00B9
:00000001FF
