:1000000012C02AC029C028C036C026C025C024C0BE
:1000100023C022C021C020C01FC01EC01DC01CC0E4
:100020001BC01AC019C011241FBECFEDCDBF10E0F8
:10003000A0E6B0E0EAEEF0E002C005900D92AC3A26
:10004000B107D9F720E0ACEAB0E001C01D92AD3AAB
:10005000B207E1F73BD047C0D3CF9C012115310552
:1000600009F408958FEC97E00197F1F700C00000C4
:1000700021503109F3CF1F921FB61F9211242F93E5
:100080008F939F93EF93FF932091AC00809160003A
:10009000909161002817190614F01092AC00E091BD
:1000A000AC00F0E0EE0FFF1FEE59FF4F808188BBE0
:1000B0008091AC008F5F8093AC00FF91EF919F9196
:1000C0008F912F911F901FBE1F9018958FEF87BBA8
:1000D00089E08EBD80E197E29BBD8ABD89B78064CF
:0A00E00089BF7894FFCFF894FFCF9A
:1000EA0025003C00040038000400380000003D00F0
:1000FA0000003C0004000400380000003D0000003D
:10010A00FC00240024001800000018002400240029
:10011A00180000000400380010000C0000002F0036
:0C012A00000000000000000000000000C9
:00000001FF
