:1000000012C02AC029C028C036C026C025C024C0BE
:1000100023C022C021C020C01FC01EC01DC01CC0E4
:100020001BC01AC019C011241FBECFEDCDBF10E0F8
:10003000A0E6B0E0EAEEF0E002C005900D92A43731
:10004000B107D9F720E0A4E7B0E001C01D92A537C1
:10005000B207E1F73BD047C0D3CF9C012115310552
:1000600009F408958FEC97E00197F1F700C00000C4
:1000700021503109F3CF1F921FB61F9211242F93E5
:100080008F939F93EF93FF93209174008091600072
:10009000909161002817190614F010927400E091F5
:1000A0007400F0E0EE0FFF1FEE59FF4F808188BB18
:1000B000809174008F5F80937400FF91EF919F9106
:1000C0008F912F911F901FBE1F9018958FEF87BBA8
:1000D00089E08EBD80E197E29BBD8ABD89B78064CF
:0A00E00089BF7894FFCFF894FFCF9A
:1000EA0009000000000000000000000000000000FD
:0400FA000000000002
:00000001FF
