:1000000012C017C016C015C014C013C012C011C052
:1000100010C00FC00EC00DC00CC00BC00AC009C07C
:1000200008C007C006C011241FBECFEDCDBF10D041
:100030003FC0E6CF9C012115310509F408958FECEE
:1000400097E00197F1F700C0000021503109F3CF8C
:100050008FEF87BB18BACC24C39482E0D82E94E0EB
:10006000E92E28E0F22E00E110E2D0E4C0E8C8BAA0
:1000700088EC90E0DFDFD8BA88EC90E0DBDFE8BA0C
:1000800088EC90E0D7DFF8BA88EC90E0D3DF08BBCB
:1000900088EC90E0CFDF18BB88EC90E0CBDFD8BBDA
:1000A00088EC90E0C7DFC8BB88EC90E0C3DFDFCF0F
:0400B000F894FFCFF2
:00000001FF
